:100000000C942A000C943C000C943C000C943C0092
:100010000C943C000C943C000C943C000C943C0070
:100020000C943C000C943C000C94D9030C943C00C0
:100030000C943C000C943C000C943C000C943C0050
:100040000C943C000C943C000C943C000C943C0040
:100050000C943C0011241FBECFE5D8E0DEBFCDBF1D
:1000600020E0A0E6B0E001C01D92A43AB207E1F79B
:100070000E941E020C9416040C940000CF93DF9390
:1000800000D0CDB7DEB789836A838981883078F55F
:100090008A818130A1F48BE390E02BE330E0F90119
:1000A0002081622F2981422F50E021E030E002C000
:1000B000220F331F4A95E2F7262BFC0120838A8109
:1000C0008823A9F48BE390E02BE330E0F901208151
:1000D000622F2981422F50E021E030E002C0220F40
:1000E000331F4A95E2F720952623FC01208389815E
:1000F0008830C0F189818031A8F58A818130B9F4D6
:1001000088E390E028E330E0F9012081622F298123
:10011000222F30E0A9014850510921E030E002C00F
:10012000220F331F4A95E2F7262BFC0120838A8198
:100130008823C1F488E390E028E330E0F9012081CE
:10014000622F2981222F30E0A9014850510921E076
:1001500030E002C0220F331F4A95E2F72095262394
:10016000FC01208389818031C0F189818831A8F523
:100170008A818130B9F485E390E025E330E0F9012C
:100180002081622F2981222F30E0A901405151099D
:1001900021E030E002C0220F331F4A95E2F7262B00
:1001A000FC0120838A818823C1F485E390E025E364
:1001B00030E0F9012081622F2981222F30E0A9014E
:1001C0004051510921E030E002C0220F331F4A950F
:1001D000E2F720952623FC01208389818931C0F133
:1001E00089818032A8F58A818130B9F482E390E078
:1001F00022E330E0F9012081622F2981222F30E0B3
:10020000A9014851510921E030E002C0220F331FFB
:100210004A95E2F7262BFC0120838A818823C1F4CA
:1002200082E390E022E330E0F9012081622F29810E
:10023000222F30E0A9014851510921E030E002C0ED
:10024000220F331F4A95E2F720952623FC012083D5
:1002500000000F900F90DF91CF910895CF93DF931F
:1002600000D0CDB7DEB789836A838981883078F57D
:100270008A818130A1F48AE390E02AE330E0F90139
:100280002081622F2981422F50E021E030E002C01E
:10029000220F331F4A95E2F7262BFC0120838A8127
:1002A0008823A9F48AE390E02AE330E0F901208171
:1002B000622F2981422F50E021E030E002C0220F5E
:1002C000331F4A95E2F720952623FC01208389817C
:1002D0008830C0F189818031A8F58A818130B9F4F4
:1002E00087E390E027E330E0F9012081622F298144
:1002F000222F30E0A9014850510921E030E002C02E
:10030000220F331F4A95E2F7262BFC0120838A81B6
:100310008823C1F487E390E027E330E0F9012081EE
:10032000622F2981222F30E0A9014850510921E094
:1003300030E002C0220F331F4A95E2F720952623B2
:10034000FC01208389818031C0F189818831A8F541
:100350008A818130B9F484E390E024E330E0F9014C
:100360002081622F2981222F30E0A90140515109BB
:1003700021E030E002C0220F331F4A95E2F7262B1E
:10038000FC0120838A818823C1F484E390E024E384
:1003900030E0F9012081622F2981222F30E0A9016C
:1003A0004051510921E030E002C0220F331F4A952D
:1003B000E2F720952623FC01208389818931C0F151
:1003C00089818032A8F58A818130B9F481E390E097
:1003D00021E330E0F9012081622F2981222F30E0D2
:1003E000A9014851510921E030E002C0220F331F1A
:1003F0004A95E2F7262BFC0120838A818823C1F4E9
:1004000081E390E021E330E0F9012081622F29812E
:10041000222F30E0A9014851510921E030E002C00B
:10042000220F331F4A95E2F720952623FC012083F3
:1004300000000F900F90DF91CF910895CF93DF933D
:10044000CDB7DEB761E08CE00E942E0161E08DE067
:100450000E942E0161E08EE00E942E0161E08FE09B
:100460000E942E018AEE92E00E94610286E193E0F2
:100470000E94610282E493E00E9461028EE693E0B2
:100480000E9461020E944502FFCFCF93DF93CDB758
:10049000DEB70E949A0382E592E00E94C6030E94A2
:1004A0008202FDCFCF93DF93CDB7DEB7809160009E
:1004B000882319F481E0809360000000DF91CF91E0
:1004C0000895CF93DF9300D0CDB7DEB79A838983A9
:1004D00080916100882F90E0880F991F880F991FE5
:1004E00083589F4F29813A81FC0131832083809179
:1004F00061008F5F8093610000000F900F90DF918B
:10050000CF910895CF93DF93CDB7DEB78091600090
:10051000813009F05BC0809162008F5F8093620040
:1005200080916200853029F481E08093620010920E
:10053000600080916200813049F480917D0090914B
:100540007E00FC0109951092600040C0809162001D
:10055000823049F48091810090918200FC010995DC
:100560001092600033C080916200833049F4809122
:10057000850090918600FC0109951092600026C0CC
:1005800080916200843049F48091890090918A00C2
:10059000FC0109951092600019C0809162008530BD
:1005A00049F480918D0090918E00FC010995109284
:1005B00060000CC080916200863041F4809191000F
:1005C00090919200FC010995109260000000DF916B
:1005D000CF910895CF93DF93CDB7DEB780916300BD
:1005E00090916400019690936400809363008091E1
:1005F0006300909164008A3F910529F461E08CE0EA
:100600000E943E000FC08091630090916400843F7F
:10061000914041F460E08CE00E943E001092640042
:10062000109263000000DF91CF910895CF93DF9384
:10063000CDB7DEB7809165009091660001969093EA
:1006400066008093650080916500909166008A3F06
:10065000910529F461E08DE00E943E000FC0809179
:10066000650090916600843F914041F460E08DE028
:100670000E943E0010926600109265000000DF911B
:10068000CF910895CF93DF93CDB7DEB78091670008
:100690009091680001969093680080936700809124
:1006A0006700909168008A3F910529F461E08EE02F
:1006B0000E943E000FC08091670090916800843FC7
:1006C000914041F460E08EE00E943E00109268008C
:1006D000109267000000DF91CF910895CF93DF93D0
:1006E000CDB7DEB78091690090916A000196909332
:1006F0006A00809369008091690090916A008A3F46
:10070000910529F461E08FE00E943E000FC08091C6
:10071000690090916A00843F914041F460E08FE06D
:100720000E943E0010926A00109269000000DF9162
:10073000CF910895CF93DF93CDB7DEB78FE590E0EB
:100740002FE530E0F90120812068FC01208389E554
:1007500090E029E530E0F90120812260FC0120834E
:1007600082E590E0FC0110828CE590E029EFFC012D
:10077000208383E590E023E530E0F90120812B60C0
:10078000FC0120830000DF91CF910895CF93DF9388
:1007900000D0CDB7DEB79A83898389819A819093FF
:1007A000A2008093A10000000F900F90DF91CF91E5
:1007B00008951F920F9200905F000F9211242F93C3
:1007C0003F934F935F936F937F938F939F93AF93D9
:1007D000BF93EF93FF93CF93DF93CDB7DEB78091B5
:1007E000A1009091A200FC0109958091A3008230A4
:1007F00041F41092A3008091A1009091A200FC010D
:1008000009950000DF91CF91FF91EF91BF91AF91DA
:100810009F918F917F916F915F914F913F912F9118
:100820000F9000925F000F901F901895F894FFCFE3
:00000001FF
