:100000000C942A000C943C000C943C000C943C0092
:100010000C943C000C943C000C943C000C943C0070
:100020000C943C000C943C000C94D8070C943C00BD
:100030000C943C000C943C000C943C000C943C0050
:100040000C943C000C943C000C943C000C943C0040
:100050000C943C0011241FBECFE5D8E0DEBFCDBF1D
:1000600020E0A0E6B0E001C01D92A53DB207E1F797
:100070000E940E030C9421080C940000CF93DF9390
:100080001F92CDB7DEB78AE00E942C028983898156
:100090000F90DF91CF910895CF93DF9300D0CDB72C
:1000A000DEB789836A838981883078F58A818130D7
:1000B000A1F48BE390E02BE330E0F9012081622F83
:1000C0002981422F50E021E030E002C0220F331F8F
:1000D0004A95E2F7262BFC0120838A818823A9F424
:1000E0008BE390E02BE330E0F9012081622F29813E
:1000F000422F50E021E030E002C0220F331F4A952A
:10010000E2F720952623FC01208389818830C0F105
:1001100089818031A8F58A818130B9F488E390E043
:1001200028E330E0F9012081622F2981222F30E07D
:10013000A9014850510921E030E002C0220F331FCD
:100140004A95E2F7262BFC0120838A818823C1F49B
:1001500088E390E028E330E0F9012081622F2981D3
:10016000222F30E0A9014850510921E030E002C0BF
:10017000220F331F4A95E2F720952623FC012083A6
:1001800089818031C0F189818831A8F58A818130E7
:10019000B9F485E390E025E330E0F9012081622F96
:1001A0002981222F30E0A9014051510921E030E09E
:1001B00002C0220F331F4A95E2F7262BFC01208351
:1001C0008A818823C1F485E390E025E330E0F901DA
:1001D0002081622F2981222F30E0A901405151094D
:1001E00021E030E002C0220F331F4A95E2F720954C
:1001F0002623FC01208389818931C0F189818032E5
:10020000A8F58A818130B9F482E390E022E330E0FE
:10021000F9012081622F2981222F30E0A901485164
:10022000510921E030E002C0220F331F4A95E2F766
:10023000262BFC0120838A818823C1F482E390E08D
:1002400022E330E0F9012081622F2981222F30E062
:10025000A9014851510921E030E002C0220F331FAB
:100260004A95E2F720952623FC01208300000F9099
:100270000F90DF91CF910895CF93DF9300D0CDB74A
:10028000DEB789836A838981883078F58A818130F5
:10029000A1F48AE390E02AE330E0F9012081622FA3
:1002A0002981422F50E021E030E002C0220F331FAD
:1002B0004A95E2F7262BFC0120838A818823A9F442
:1002C0008AE390E02AE330E0F9012081622F29815E
:1002D000422F50E021E030E002C0220F331F4A9548
:1002E000E2F720952623FC01208389818830C0F124
:1002F00089818031A8F58A818130B9F487E390E063
:1003000027E330E0F9012081622F2981222F30E09C
:10031000A9014850510921E030E002C0220F331FEB
:100320004A95E2F7262BFC0120838A818823C1F4B9
:1003300087E390E027E330E0F9012081622F2981F3
:10034000222F30E0A9014850510921E030E002C0DD
:10035000220F331F4A95E2F720952623FC012083C4
:1003600089818031C0F189818831A8F58A81813005
:10037000B9F484E390E024E330E0F9012081622FB6
:100380002981222F30E0A9014051510921E030E0BC
:1003900002C0220F331F4A95E2F7262BFC0120836F
:1003A0008A818823C1F484E390E024E330E0F901FA
:1003B0002081622F2981222F30E0A901405151096B
:1003C00021E030E002C0220F331F4A95E2F720956A
:1003D0002623FC01208389818931C0F18981803203
:1003E000A8F58A818130B9F481E390E021E330E01F
:1003F000F9012081622F2981222F30E0A901485183
:10040000510921E030E002C0220F331F4A95E2F784
:10041000262BFC0120838A818823C1F481E390E0AC
:1004200021E330E0F9012081622F2981222F30E081
:10043000A9014851510921E030E002C0220F331FC9
:100440004A95E2F720952623FC01208300000F90B7
:100450000F90DF91CF910895CF93DF9300D0CDB768
:10046000DEB78A8319828A818830D8F489E390E0E4
:10047000FC018081282F30E08A81482F50E081E004
:1004800090E002C0880F991F4A95E2F782239323D8
:100490002A81222F30E002C0959587952A95E2F7B0
:1004A00089838A81883018F18A81803100F586E35A
:1004B00090E0FC018081282F30E08A81882F90E035
:1004C000AC014850510981E090E002C0880F991FAB
:1004D0004A95E2F7822393232A81222F30E0285085
:1004E000310902C0959587952A95E2F789838A811B
:1004F000803118F18A81883100F583E390E0FC01B6
:100500008081282F30E08A81882F90E0AC01405113
:10051000510981E090E002C0880F991F4A95E2F7E7
:10052000822393232A81222F30E02051310902C0F7
:10053000959587952A95E2F789838A81893118F103
:100540008A81803200F580E390E0FC018081282FD1
:1005500030E08A81882F90E0AC014851510981E058
:1005600090E002C0880F991F4A95E2F782239323F7
:100570002A81222F30E02851310902C095958795B4
:100580002A95E2F7898389810F900F90DF91CF91AF
:100590000895CF93DF931F92CDB7DEB7898389810A
:1005A0000E942C02882329F461E089810E944C007A
:1005B00004C060E089810E944C0000000F90DF9130
:1005C000CF910895CF93DF93CDB7DEB78CE00E9433
:1005D000C9020000DF91CF910895CF93DF93CDB78B
:1005E000DEB78DE00E94C9020000DF91CF9108952F
:1005F000CF93DF93CDB7DEB78EE00E94C902000033
:10060000DF91CF910895CF93DF93CDB7DEB78FE021
:100610000E94C9020000DF91CF9108950F93CF93FC
:10062000DF93CDB7DEB761E08CE00E943C0161E072
:100630008DE00E943C0161E08EE00E943C0161E09F
:100640008FE00E943C0160E08AE00E943C010E9431
:10065000600300E021E044EF51E060E070E087E5F6
:1006600097E00E94FA0301E021E044EF51E060E0EE
:1006700070E081E697E00E94FA0302E021E044EF97
:1006800051E060E070E08BE697E00E94FA0303E03F
:1006900021E044EF51E060E070E085E797E00E94E0
:1006A000FA0304E021E044EF51E060E070E08FE7FE
:1006B00097E00E94FA0381E090E00E94D903FFCF07
:1006C000CF93DF9300D000D0CDB7DEB719821A8266
:1006D0001B821C825DC029813A81C901880F991F44
:1006E000820F931F880F991F880F991F8B599F4F57
:1006F000FC011182108229813A81C901880F991F5A
:10070000820F931F880F991F880F991F84599F4F3D
:10071000FC01108211821282138229813A81C9015F
:10072000880F991F820F931F880F991F880F991F99
:1007300089599F4FFC01108229813A81C901880F94
:10074000991F820F931F880F991F880F991F845933
:100750009F4FFC01108211821282138229813A81FB
:10076000C901880F991F820F931F880F991F880F47
:10077000991F80599F4FFC01108289819A81AB811A
:10078000BC810196A11DB11D89839A83AB83BC8373
:1007900089819A81AB81BC810597A105B10508F4D7
:1007A0009ACF00000F900F900F900F90DF91CF9194
:1007B0000895CF93DF9300D0CDB7DEB79A838983B6
:1007C00089819A810E948E078BEE93E00E94C50773
:1007D0000E949506FDCFCF93DF93CDB7DEB7809112
:1007E0006000882319F481E0809360000000DF91AD
:1007F000CF9108950F93CF93DF93CDB7DEB72A97AC
:100800000FB6F894DEBF0FBECDBF9C838B834D83A4
:100810005E836F83788729870A8780916100282FFC
:1008200030E0C901880F991F820F931F880F991F0D
:10083000880F991F8B599F4F2B813C81FC0131837D
:10084000208380916100282F30E04D81C901880FFD
:10085000991F820F931F880F991F880F991F89591D
:100860009F4FFC01408380916100282F30E0C90137
:10087000880F991F820F931F880F991F880F991F48
:100880009C0128593F4F8D819E81AF81B885F90128
:1008900080839183A283B38380916100282F30E00D
:1008A000C901880F991F820F931F880F991F880F06
:1008B000991F80599F4F2A85FC01208380916100F8
:1008C0008F5F8093610019823CC01A8234C08A8194
:1008D000282F30E0C901880F991F820F931F880FBE
:1008E000991F880F991F84599F4FFC0120813181E6
:1008F000428153818A81882F90E0BC016F5F7F4FD6
:10090000CB01880F991F860F971F880F991F880F9B
:10091000991F84599F4FFC0180819181A281B381ED
:10092000281739074A075B0718F48A810E94EE04EA
:100930008A818F5F8A838A81843048F289818F5FC0
:1009400089838981853008F281E02A960FB6F89470
:10095000DEBF0FBECDBFDF91CF910F910895CF9332
:10096000DF9300D0CDB7DEB78A8319822EC089818C
:10097000282F30E0C901880F991F820F931F880F1D
:10098000991F880F991F80599F4FFC0190818A8180
:100990009817C1F48981282F30E0C901880F991F69
:1009A000820F931F880F991F880F991F9C0124594C
:1009B0003F4F83E690E0A0E0B0E0F90180839183AF
:1009C000A283B38389818F5F89838981853078F29F
:1009D00000000F900F90DF91CF910895CF93DF9398
:1009E000CDB7DEB72D970FB6F894DEBF0FBECDBFE3
:1009F0008D878D85282F30E0C901880F991F820FC0
:100A0000931F880F991F880F991F84599F4FFC01CE
:100A100080819181A281B38188879987AA87BB87CA
:100A20008D85282F30E0C901880F991F820F931FF1
:100A3000880F991F880F991F89599F4FFC0180814A
:100A40008B838D85282F30E0C901880F991F820F75
:100A5000931F880F991F880F991F88599F4FFC017A
:100A600080819181A281B3818C839D83AE83BF837A
:100A70008D85282F30E0C901880F991F820F931FA1
:100A8000880F991F880F991F8B599F4FFC018081F8
:100A900091819A8389838D85282F30E0C901880F41
:100AA000991F820F931F880F991F880F991F8059D4
:100AB0009F4FFC0180818C878D85682F70E08D852C
:100AC000882F90E09C012F5F3F4FC901880F991F2D
:100AD000820F931F880F991F880F991F88599F4F66
:100AE000FC012081318142815381CB01880F991F04
:100AF000860F971F880F991F880F991F88599F4F3E
:100B0000FC0120833183428353838D85682F70E0FD
:100B10008D85882F90E09C012F5F3F4FC901880F82
:100B2000991F820F931F880F991F880F991F84594F
:100B30009F4FFC012081318142815381CB01880F7D
:100B4000991F860F971F880F991F880F991F845927
:100B50009F4FFC0120833183428353838D85282F4F
:100B600030E08D85882F90E0AC014F5F5F4FCA0168
:100B7000880F991F840F951F880F991F880F991F41
:100B800089599F4FFC014081C901880F991F820F2D
:100B9000931F880F991F880F991F89599F4FFC0138
:100BA00040838D85282F30E08D85882F90E0AC0123
:100BB0004F5F5F4FCA01880F991F840F951F880FE1
:100BC000991F880F991F8B599F4FFC0140815181BC
:100BD000C901880F991F820F931F880F991F880FD3
:100BE000991F8B599F4FFC01518340838D85282F7E
:100BF00030E08D85882F90E0AC014F5F5F4FCA01D8
:100C0000880F991F840F951F880F991F880F991FB0
:100C100080599F4FFC014081C901880F991F820FA5
:100C2000931F880F991F880F991F80599F4FFC01B0
:100C300040838D85882F90E0BC016F5F7F4F2C81B2
:100C40003D814E815F81CB01880F991F860F971FD1
:100C5000880F991F880F991F88599F4FFC01208387
:100C60003183428353838D85882F90E0BC016F5F71
:100C70007F4F288539854A855B85CB01880F991F71
:100C8000860F971F880F991F880F991F84599F4FB0
:100C9000FC0120833183428353838D85882F90E02C
:100CA0009C012F5F3F4F4B81C901880F991F820F15
:100CB000931F880F991F880F991F89599F4FFC0117
:100CC00040838D85882F90E09C012F5F3F4F4981A5
:100CD0005A81C901880F991F820F931F880F991F8E
:100CE000880F991F8B599F4FFC01518340838D853D
:100CF000882F90E09C012F5F3F4F4C85C901880FE2
:100D0000991F820F931F880F991F880F991F805971
:100D10009F4FFC01408300002D960FB6F894DEBF74
:100D20000FBECDBFDF91CF910895CF93DF9300D059
:100D300000D0CDB7DEB780916000813009F0AFC040
:100D4000809162008F5F8093620019821A821B82F9
:100D50001C829AC029813A81C901880F991F820F8C
:100D6000931F880F991F880F991F88599F4FFC0167
:100D700080819181A281B3819C01AD012150310913
:100D80004109510969817A81CB01880F991F860F2A
:100D9000971F880F991F880F991F88599F4FFC0133
:100DA000208331834283538329813A81C901880F8B
:100DB000991F820F931F880F991F880F991F8859B9
:100DC0009F4FFC0180819181A281B381892B8A2B65
:100DD0008B2B09F04EC029813A81C901880F991FD8
:100DE000820F931F880F991F880F991F84599F4F57
:100DF000FC0180819181A281B38183369105A10597
:100E0000B105B9F129813A81C901880F991F820F73
:100E1000931F880F991F880F991F8B599F4FFC01B3
:100E200080819181FC01099529813A81C901880F4E
:100E3000991F820F931F880F991F880F991F895937
:100E40009F4FFC018081282F30E040E050E0698115
:100E50007A81CB01880F991F860F971F880F991FE2
:100E6000880F991F88599F4FFC012083318342834B
:100E7000538389819A81AB81BC810196A11DB11DEB
:100E800089839A83AB83BC8389819A81AB81BC813E
:100E90000597A105B10508F45DCF10926000000030
:100EA0000F900F900F900F90DF91CF910895CF93F7
:100EB000DF93CDB7DEB70E94E2020000DF91CF9151
:100EC0000895CF93DF93CDB7DEB70E94ED02000007
:100ED000DF91CF910895CF93DF93CDB7DEB70E9416
:100EE000F8020000DF91CF910895CF93DF93CDB743
:100EF000DEB70E9403030000DF91CF910895CF93E6
:100F0000DF93CDB7DEB70E943E00813019F483E055
:100F10000E94AF040000DF91CF910895CF93DF933B
:100F200000D0CDB7DEB79A83898389819A81909367
:100F3000D4008093D3008FE590E02FE530E0F901F5
:100F400020812068FC01208389E590E029E530E0DC
:100F5000F90120812260FC01208382E590E0FC0100
:100F600010828CE590E029EFFC01208383E590E07E
:100F700023E530E0F90120812B60FC012083000093
:100F80000F900F90DF91CF910895CF93DF9300D012
:100F9000CDB7DEB79A83898389819A819093D200F5
:100FA0008093D10000000F900F90DF91CF910895B2
:100FB0001F920F9200905F000F9211242F933F9386
:100FC0004F935F936F937F938F939F93AF93BF9351
:100FD000EF93FF93CF93DF93CDB7DEB7809163009C
:100FE0009091640001969093640080936300209137
:100FF000D3003091D4008091630090916400281751
:10100000390751F48091D1009091D200FC010995EB
:1010100010926400109263000000DF91CF91FF9165
:10102000EF91BF91AF919F918F917F916F915F9160
:101030004F913F912F910F9000925F000F901F9062
:061040001895F894FFCFA3
:00000001FF
