S01100005363686564756C61722E7372656378
S11300000C942A000C9447000C9447000C9447006D
S11300100C9447000C9447000C9447000C94470040
S11300200C9447000C9447000C94B3030C944700C1
S11300300C9447000C9447000C9447000C94470020
S11300400C9447000C9447000C9447000C94470010
S11300500C94470011241FBECFE5D8E0DEBFCDBF0E
S113006010E0A0E6B0E0E4EEF7E002C005900D92E7
S1130070A237B107D9F720E0A2E7B0E001C01D9292
S1130080AF37B207E1F70E9429020C94F0030C94F5
S11300900000CF93DF9300D0CDB7DEB789836A83A6
S11300A08981883078F58A818130A1F48BE390E0EE
S11300B02BE330E0F9012081622F2981422F50E0A7
S11300C021E030E002C0220F331F4A95E2F7262BCD
S11300D0FC0120838A818823A9F48BE390E02BE33D
S11300E030E0F9012081622F2981422F50E021E084
S11300F030E002C0220F331F4A95E2F720952623F1
S1130100FC01208389818830C0F189818031A8F580
S11301108A818130B9F488E390E028E330E0F90182
S11301202081622F2981222F30E0A90148505109F2
S113013021E030E002C0220F331F4A95E2F7262B5C
S1130140FC0120838A818823C1F488E390E028E3BA
S113015030E0F9012081622F2981222F30E0A901AA
S11301604850510921E030E002C0220F331F4A9564
S1130170E2F720952623FC01208389818031C0F198
S113018089818831A8F58A818130B9F485E390E0CA
S113019025E330E0F9012081622F2981222F30E00C
S11301A0A9014051510921E030E002C0220F331F60
S11301B04A95E2F7262BFC0120838A818823C1F427
S11301C085E390E025E330E0F9012081622F298165
S11301D0222F30E0A9014051510921E030E002C052
S11301E0220F331F4A95E2F720952623FC01208332
S11301F089818931C0F189818032A8F58A81813071
S1130200B9F482E390E022E330E0F9012081622F27
S11302102981222F30E0A9014851510921E030E021
S113022002C0220F331F4A95E2F7262BFC012083DC
S11302308A818823C1F482E390E022E330E0F9016B
S11302402081622F2981222F30E0A90148515109D0
S113025021E030E002C0220F331F4A95E2F72095D7
S11302602623FC01208300000F900F90DF91CF9193
S11302700895CF93DF9300D0CDB7DEB789836A8327
S11302808981883078F58A818130A1F48AE390E00D
S11302902AE330E0F9012081622F2981422F50E0C6
S11302A021E030E002C0220F331F4A95E2F7262BEB
S11302B0FC0120838A818823A9F48AE390E02AE35D
S11302C030E0F9012081622F2981422F50E021E0A2
S11302D030E002C0220F331F4A95E2F7209526230F
S11302E0FC01208389818830C0F189818031A8F59F
S11302F08A818130B9F487E390E027E330E0F901A3
S11303002081622F2981222F30E0A9014850510910
S113031021E030E002C0220F331F4A95E2F7262B7A
S1130320FC0120838A818823C1F487E390E027E3DA
S113033030E0F9012081622F2981222F30E0A901C8
S11303404850510921E030E002C0220F331F4A9582
S1130350E2F720952623FC01208389818031C0F1B6
S113036089818831A8F58A818130B9F484E390E0E9
S113037024E330E0F9012081622F2981222F30E02B
S1130380A9014051510921E030E002C0220F331F7E
S11303904A95E2F7262BFC0120838A818823C1F445
S11303A084E390E024E330E0F9012081622F298185
S11303B0222F30E0A9014051510921E030E002C070
S11303C0220F331F4A95E2F720952623FC01208350
S11303D089818931C0F189818032A8F58A8181308F
S11303E0B9F481E390E021E330E0F9012081622F48
S11303F02981222F30E0A9014851510921E030E040
S113040002C0220F331F4A95E2F7262BFC012083FA
S11304108A818823C1F481E390E021E330E0F9018B
S11304202081622F2981222F30E0A90148515109EE
S113043021E030E002C0220F331F4A95E2F72095F5
S11304402623FC01208300000F900F90DF91CF91B1
S11304500895CF93DF93CDB7DEB761E08CE00E94BF
S1130460390161E08DE00E94390161E08EE00E9473
S1130470390161E08FE00E9439010E944002FFCF00
S1130480CF93DF93CDB7DEB70E9474038DE492E07F
S11304900E94A0030E945C02FDCFCF93DF93CDB7EF
S11304A0DEB780917200882319F481E08093720092
S11304B00000DF91CF910895CF93DF93CDB7DEB7DE
S11304C080917200813009F05BC0809173008F5F6E
S11304D08093730080917300853029F481E08093C8
S11304E073001092720080917300813049F48091FE
S11304F0600090916100FC0109951092720040C067
S113050080917300823049F480916200909163007D
S1130510FC0109951092720033C0809173008330FE
S113052049F48091640090916500FC010995109252
S1130530720026C080917300843049F48091660073
S113054090916700FC0109951092720019C0809186
S11305507300853049F48091680090916900FC0132
S11305600995109272000CC080917300863041F49A
S113057080916A0090916B00FC01099510927200C1
S11305800000DF91CF910895CF93DF93CDB7DEB70D
S113059080917400909175000196909375008093FA
S11305A0740080917400909175008A3F910529F43C
S11305B061E08CE00E9449000FC08091740090912A
S11305C07500843F914041F460E08CE00E94490052
S11305D010927500109274000000DF91CF9108957D
S11305E0CF93DF93CDB7DEB78091760090917700FB
S11305F00196909377008093760080917600909195
S113060077008A3F910529F461E08DE00E9449005A
S11306100FC08091760090917700843F914041F41F
S113062060E08DE00E9449001092770010927600FD
S11306300000DF91CF910895CF93DF93CDB7DEB75C
S1130640809178009091790001969093790080933D
S1130650780080917800909179008A3F910529F47F
S113066061E08EE00E9449000FC080917800909173
S11306707900843F914041F460E08EE00E9449009B
S113068010927900109278000000DF91CF910895C4
S1130690CF93DF93CDB7DEB780917A0090917B0042
S11306A0019690937B0080937A0080917A009091D8
S11306B07B008A3F910529F461E08FE00E944900A4
S11306C00FC080917A0090917B00843F914041F467
S11306D060E08FE00E94490010927B0010927A0043
S11306E00000DF91CF910895CF93DF93CDB7DEB7AC
S11306F08FE590E02FE530E0F90120812068FC01CE
S1130700208389E590E029E530E0F9012081226029
S1130710FC01208382E590E0FC0110828CE590E0EE
S113072029EFFC01208383E590E023E530E0F90123
S113073020812B60FC0120830000DF91CF9108957C
S1130740CF93DF9300D0CDB7DEB79A8389838981B5
S11307509A8190937D0080937C0000000F900F900D
S1130760DF91CF9108951F920F9200905F000F9236
S113077011242F933F934F935F936F937F938F93A2
S11307809F93AF93BF93EF93FF93CF93DF93CDB733
S1130790DEB780917C0090917D00FC0109958091E9
S11307A07E00823041F410927E0080917C00909112
S11307B07D00FC0109950000DF91CF91FF91EF913D
S11307C0BF91AF919F918F917F916F915F914F9165
S11307D03F912F910F9000925F000F901F901895FA
S10707E0F894FFCFB7
S11307E4C402F0021C0348030000000000000000DF
S10507F40000FF
S9030000FC
