:100000000C942A000C943C000C943C000C943C0092
:100010000C943C000C943C000C943C000C943C0070
:100020000C943C000C943C000C94C8040C943C00D0
:100030000C943C000C943C000C943C000C943C0050
:100040000C943C000C943C000C943C000C943C0040
:100050000C943C0011241FBECFE5D8E0DEBFCDBF1D
:1000600020E0A0E6B0E001C01D92A93CB207E1F794
:100070000E94D4020C942F050C940000CF93DF93C0
:1000800000D0CDB7DEB789836A838981883078F55F
:100090008A818130A1F48BE390E02BE330E0F90119
:1000A0002081622F2981422F50E021E030E002C000
:1000B000220F331F4A95E2F7262BFC0120838A8109
:1000C0008823A9F48BE390E02BE330E0F901208151
:1000D000622F2981422F50E021E030E002C0220F40
:1000E000331F4A95E2F720952623FC01208389815E
:1000F0008830C0F189818031A8F58A818130B9F4D6
:1001000088E390E028E330E0F9012081622F298123
:10011000222F30E0A9014850510921E030E002C00F
:10012000220F331F4A95E2F7262BFC0120838A8198
:100130008823C1F488E390E028E330E0F9012081CE
:10014000622F2981222F30E0A9014850510921E076
:1001500030E002C0220F331F4A95E2F72095262394
:10016000FC01208389818031C0F189818831A8F523
:100170008A818130B9F485E390E025E330E0F9012C
:100180002081622F2981222F30E0A901405151099D
:1001900021E030E002C0220F331F4A95E2F7262B00
:1001A000FC0120838A818823C1F485E390E025E364
:1001B00030E0F9012081622F2981222F30E0A9014E
:1001C0004051510921E030E002C0220F331F4A950F
:1001D000E2F720952623FC01208389818931C0F133
:1001E00089818032A8F58A818130B9F482E390E078
:1001F00022E330E0F9012081622F2981222F30E0B3
:10020000A9014851510921E030E002C0220F331FFB
:100210004A95E2F7262BFC0120838A818823C1F4CA
:1002200082E390E022E330E0F9012081622F29810E
:10023000222F30E0A9014851510921E030E002C0ED
:10024000220F331F4A95E2F720952623FC012083D5
:1002500000000F900F90DF91CF910895CF93DF931F
:1002600000D0CDB7DEB789836A838981883078F57D
:100270008A818130A1F48AE390E02AE330E0F90139
:100280002081622F2981422F50E021E030E002C01E
:10029000220F331F4A95E2F7262BFC0120838A8127
:1002A0008823A9F48AE390E02AE330E0F901208171
:1002B000622F2981422F50E021E030E002C0220F5E
:1002C000331F4A95E2F720952623FC01208389817C
:1002D0008830C0F189818031A8F58A818130B9F4F4
:1002E00087E390E027E330E0F9012081622F298144
:1002F000222F30E0A9014850510921E030E002C02E
:10030000220F331F4A95E2F7262BFC0120838A81B6
:100310008823C1F487E390E027E330E0F9012081EE
:10032000622F2981222F30E0A9014850510921E094
:1003300030E002C0220F331F4A95E2F720952623B2
:10034000FC01208389818031C0F189818831A8F541
:100350008A818130B9F484E390E024E330E0F9014C
:100360002081622F2981222F30E0A90140515109BB
:1003700021E030E002C0220F331F4A95E2F7262B1E
:10038000FC0120838A818823C1F484E390E024E384
:1003900030E0F9012081622F2981222F30E0A9016C
:1003A0004051510921E030E002C0220F331F4A952D
:1003B000E2F720952623FC01208389818931C0F151
:1003C00089818032A8F58A818130B9F481E390E097
:1003D00021E330E0F9012081622F2981222F30E0D2
:1003E000A9014851510921E030E002C0220F331F1A
:1003F0004A95E2F7262BFC0120838A818823C1F4E9
:1004000081E390E021E330E0F9012081622F29812E
:10041000222F30E0A9014851510921E030E002C00B
:10042000220F331F4A95E2F720952623FC012083F3
:1004300000000F900F90DF91CF910895CF93DF933D
:1004400000D0CDB7DEB78A8319828A818830D8F48C
:1004500089E390E0FC018081282F30E08A81482FD9
:1004600050E081E090E002C0880F991F4A95E2F7C2
:10047000822393232A81222F30E002C0959587950D
:100480002A95E2F789838A81883018F18A81803140
:1004900000F586E390E0FC018081282F30E08A811E
:1004A000882F90E0AC014850510981E090E002C0F3
:1004B000880F991F4A95E2F7822393232A81222FDE
:1004C00030E02850310902C0959587952A95E2F7CA
:1004D00089838A81803118F18A81883100F583E32C
:1004E00090E0FC018081282F30E08A81882F90E005
:1004F000AC014051510981E090E002C0880F991F82
:100500004A95E2F7822393232A81222F30E020515B
:10051000310902C0959587952A95E2F789838A81EA
:10052000893118F18A81803200F580E390E0FC0186
:100530008081282F30E08A81882F90E0AC014851DB
:10054000510981E090E002C0880F991F4A95E2F7B7
:10055000822393232A81222F30E02851310902C0BF
:10056000959587952A95E2F7898389810F900F9059
:10057000DF91CF910895CF93DF931F92CDB7DEB770
:10058000898389810E941E02882329F461E0898180
:100590000E943E0004C060E089810E943E0000008D
:1005A0000F90DF91CF910895CF93DF93CDB7DEB752
:1005B00061E08CE00E942E0161E08DE00E942E013E
:1005C00061E08EE00E942E0161E08FE00E942E012A
:1005D0000E940D0344EF51E060E070E08DE594E08F
:1005E0000E948C0344EF51E060E070E088E694E004
:1005F0000E948C0344EF51E060E070E083E794E0F8
:100600000E948C0344EF51E060E070E08EE794E0DC
:100610000E948C030E947003FFCFCF93DF9300D022
:1006200000D0CDB7DEB719821A821B821C8247C068
:1006300029813A814BE0429FC001439F900D1124D4
:100640008D599F4FFC011182108229813A814BE024
:10065000429FC001439F900D112486599F4FFC017A
:10066000108211821282138229813A814BE0429FCB
:10067000C001439F900D11248B599F4FFC011082A4
:1006800029813A814BE0429FC001439F900D112484
:100690009C0126593F4F83E690E0A0E0B0E0F901CD
:1006A00080839183A283B38389819A81AB81BC814A
:1006B0000196A11DB11D89839A83AB83BC83898177
:1006C0009A81AB81BC810497A105B10508F4B0CF34
:1006D00000000F900F900F900F90DF91CF91089531
:1006E000CF93DF93CDB7DEB70E9489048DE793E007
:1006F0000E94B5040E94C803FDCFCF93DF93CDB70E
:10070000DEB780916000882319F481E08093600057
:100710000000DF91CF910895CF93DF9300D000D0F8
:1007200000D0CDB7DEB79A8389834B835C836D831A
:100730007E8380916100282F30E04BE0429FC00112
:10074000439F900D11248D599F4F29813A81FC01BF
:100750003183208380916100282F30E04B815BE062
:10076000529FC001539F900D11248B599F4FFC0144
:100770004083809161008F5F809361000000269626
:100780000FB6F894DEBF0FBECDBFDF91CF910895B5
:10079000EF92FF920F931F93CF93DF93CDB7DEB706
:1007A00028970FB6F894DEBF0FBECDBF80916000D2
:1007B000813009F074C0809162008F5F8093620085
:1007C0001D821E821F8218865DC081E090E0A0E03D
:1007D000B0E089839A83AB83BC833FC02D813E8187
:1007E0004BE0429FC001439F900D11248B599F4FB6
:1007F000FC018081E82EF12C00E010E08091620085
:10080000282F30E040E050E089819A81AB81BC81A3
:10081000BC01CD010E940505DC01CB01E816F906FB
:100820000A071B0779F42D813E814BE0429FC001EE
:10083000439F900D11248D599F4FFC018081918120
:10084000FC01099589819A81AB81BC810196A11D2A
:10085000B11D89839A83AB83BC8389819A81AB81E3
:10086000BC81843F9140A105B10508F4B7CF8D81CB
:100870009E81AF81B8850196A11DB11D8D839E8398
:10088000AF83B8878D819E81AF81B8850497A1051C
:10089000B10508F49ACF80916200109260000000C8
:1008A00028960FB6F894DEBF0FBECDBFDF91CF9173
:1008B0001F910F91FF90EF900895CF93DF93CDB7E5
:1008C000DEB78CE00E94BB020000DF91CF9108955B
:1008D000CF93DF93CDB7DEB78DE00E94BB0200005F
:1008E000DF91CF910895CF93DF93CDB7DEB78EE040
:1008F0000E94BB020000DF91CF910895CF93DF9358
:10090000CDB7DEB78FE00E94BB020000DF91CF9130
:100910000895CF93DF93CDB7DEB78FE590E02FE555
:1009200030E0F90120812068FC01208389E590E016
:1009300029E530E0F90120812260FC01208382E575
:1009400090E0FC0110828CE590E029EFFC0120830F
:1009500083E590E023E530E0F90120812B60FC0184
:1009600020830000DF91CF910895CF93DF9300D0D3
:10097000CDB7DEB79A83898389819A819093C70026
:100980008093C60000000F900F90DF91CF910895E3
:100990001F920F9200905F000F9211242F933F93AC
:1009A0004F935F936F937F938F939F93AF93BF9377
:1009B000EF93FF93CF93DF93CDB7DEB78091C6005F
:1009C0009091C700FC0109958091C800823041F4E4
:1009D0001092C8008091C6009091C700FC01099553
:1009E0000000DF91CF91FF91EF91BF91AF919F9167
:1009F0008F917F916F915F914F913F912F910F90C8
:100A000000925F000F901F901895DB018F939F93CA
:100A10000E941505BF91AF91A29F800D911DA39FCC
:100A2000900DB29F900D112408950E942005A59F5E
:100A3000900DB49F900DA49F800D911D11240895D9
:100A4000A29FB001B39FC001A39F700D811D11240F
:100A5000911DB29F700D811D1124911D0895F89470
:020A6000FFCFC6
:00000001FF
